{
  "_format": "hh-sol-artifact-1",
  "contractName": "fetchPrices",
  "sourceName": "contracts/fetchPrices.sol",
  "abi": [
    {
      "inputs": [
        {
          "internalType": "address",
          "name": "_baseToken",
          "type": "address"
        },
        {
          "internalType": "uint24",
          "name": "_fee",
          "type": "uint24"
        }
      ],
      "stateMutability": "nonpayable",
      "type": "constructor"
    },
    {
      "inputs": [],
      "name": "UniswapFactory",
      "outputs": [
        {
          "internalType": "address",
          "name": "",
          "type": "address"
        }
      ],
      "stateMutability": "view",
      "type": "function"
    },
    {
      "inputs": [
        {
          "internalType": "address",
          "name": "_token",
          "type": "address"
        }
      ],
      "name": "addTokenToIndex",
      "outputs": [],
      "stateMutability": "nonpayable",
      "type": "function"
    },
    {
      "inputs": [
        {
          "internalType": "uint256",
          "name": "",
          "type": "uint256"
        }
      ],
      "name": "assetPools",
      "outputs": [
        {
          "internalType": "address",
          "name": "",
          "type": "address"
        }
      ],
      "stateMutability": "view",
      "type": "function"
    },
    {
      "inputs": [
        {
          "internalType": "uint256",
          "name": "",
          "type": "uint256"
        }
      ],
      "name": "assets",
      "outputs": [
        {
          "internalType": "address",
          "name": "",
          "type": "address"
        }
      ],
      "stateMutability": "view",
      "type": "function"
    },
    {
      "inputs": [],
      "name": "baseToken",
      "outputs": [
        {
          "internalType": "address",
          "name": "",
          "type": "address"
        }
      ],
      "stateMutability": "view",
      "type": "function"
    },
    {
      "inputs": [],
      "name": "fee",
      "outputs": [
        {
          "internalType": "uint24",
          "name": "",
          "type": "uint24"
        }
      ],
      "stateMutability": "view",
      "type": "function"
    },
    {
      "inputs": [],
      "name": "getAllPrices",
      "outputs": [
        {
          "internalType": "bytes[]",
          "name": "",
          "type": "bytes[]"
        }
      ],
      "stateMutability": "view",
      "type": "function"
    },
    {
      "inputs": [],
      "name": "getAssets",
      "outputs": [
        {
          "internalType": "address[]",
          "name": "",
          "type": "address[]"
        }
      ],
      "stateMutability": "view",
      "type": "function"
    },
    {
      "inputs": [
        {
          "internalType": "uint256",
          "name": "_tokenIndex",
          "type": "uint256"
        }
      ],
      "name": "getQuoteOfSingleToken",
      "outputs": [
        {
          "internalType": "uint256",
          "name": "",
          "type": "uint256"
        }
      ],
      "stateMutability": "view",
      "type": "function"
    }
  ],
  "bytecode": "0x6080604052731f98431c8ad98523631ae4a59f267346ea31f984600260006101000a81548173ffffffffffffffffffffffffffffffffffffffff021916908373ffffffffffffffffffffffffffffffffffffffff16021790555073c02aaa39b223fe8d0a0e5c4f27ead9083c756cc2600360006101000a81548173ffffffffffffffffffffffffffffffffffffffff021916908373ffffffffffffffffffffffffffffffffffffffff160217905550610bb8600360146101000a81548162ffffff021916908362ffffff160217905550348015620000dc57600080fd5b5060405162001d7038038062001d70833981810160405281019062000102919062000198565b81600360006101000a81548173ffffffffffffffffffffffffffffffffffffffff021916908373ffffffffffffffffffffffffffffffffffffffff16021790555080600360146101000a81548162ffffff021916908362ffffff160217905550505062000250565b6000815190506200017b816200021c565b92915050565b600081519050620001928162000236565b92915050565b60008060408385031215620001ac57600080fd5b6000620001bc858286016200016a565b9250506020620001cf8582860162000181565b9150509250929050565b6000620001e682620001ed565b9050919050565b600073ffffffffffffffffffffffffffffffffffffffff82169050919050565b600062ffffff82169050919050565b6200022781620001d9565b81146200023357600080fd5b50565b62000241816200020d565b81146200024d57600080fd5b50565b611b1080620002606000396000f3fe608060405234801561001057600080fd5b50600436106100935760003560e01c80634f38d666116100665780634f38d6661461013257806367e4ac2c14610150578063c55dae631461016e578063cf35bdd01461018c578063ddca3f43146101bc57610093565b80630bc192a51461009857806328fb4dd2146100c85780632ad7f397146100f8578063445df9d614610114575b600080fd5b6100b260048036038101906100ad91906115a2565b6101da565b6040516100bf9190611958565b60405180910390f35b6100e260048036038101906100dd91906115a2565b61029d565b6040516100ef9190611847565b60405180910390f35b610112600480360381019061010d9190611550565b6102dc565b005b61011c6104fc565b60405161012991906118bb565b60405180910390f35b61013a610637565b6040516101479190611847565b60405180910390f35b61015861065d565b6040516101659190611899565b60405180910390f35b6101766106eb565b6040516101839190611847565b60405180910390f35b6101a660048036038101906101a191906115a2565b610711565b6040516101b39190611847565b60405180910390f35b6101c4610750565b6040516101d1919061193d565b60405180910390f35b60008061021f600184815481106101ed57fe5b9060005260206000200160009054906101000a900473ffffffffffffffffffffffffffffffffffffffff16600a610765565b509050600061029182670de0b6b3a76400006000878154811061023e57fe5b9060005260206000200160009054906101000a900473ffffffffffffffffffffffffffffffffffffffff16600360009054906101000a900473ffffffffffffffffffffffffffffffffffffffff16610bd2565b90508092505050919050565b600181815481106102ad57600080fd5b906000526020600020016000915054906101000a900473ffffffffffffffffffffffffffffffffffffffff1681565b6000600260009054906101000a900473ffffffffffffffffffffffffffffffffffffffff1673ffffffffffffffffffffffffffffffffffffffff16631698ee8283600360009054906101000a900473ffffffffffffffffffffffffffffffffffffffff16600360149054906101000a900462ffffff166040518463ffffffff1660e01b815260040161037093929190611862565b60206040518083038186803b15801561038857600080fd5b505afa15801561039c573d6000803e3d6000fd5b505050506040513d601f19601f820116820180604052508101906103c09190611579565b9050600073ffffffffffffffffffffffffffffffffffffffff168173ffffffffffffffffffffffffffffffffffffffff161415610432576040517f08c379a0000000000000000000000000000000000000000000000000000000008152600401610429906118dd565b60405180910390fd5b6000829080600181540180825580915050600190039060005260206000200160009091909190916101000a81548173ffffffffffffffffffffffffffffffffffffffff021916908373ffffffffffffffffffffffffffffffffffffffff1602179055506001819080600181540180825580915050600190039060005260206000200160009091909190916101000a81548173ffffffffffffffffffffffffffffffffffffffff021916908373ffffffffffffffffffffffffffffffffffffffff1602179055505050565b60606000808054905067ffffffffffffffff8111801561051b57600080fd5b5060405190808252806020026020018201604052801561054a5781602001602082028036833780820191505090505b5090506000808054905067ffffffffffffffff8111801561056a57600080fd5b5060405190808252806020026020018201604052801561059e57816020015b60608152602001906001900390816105895790505b50905060005b60008054905081101561062557308382815181106105be57fe5b602002602001019073ffffffffffffffffffffffffffffffffffffffff16908173ffffffffffffffffffffffffffffffffffffffff168152505061060181610dd5565b82828151811061060d57fe5b602002602001018190525080806001019150506105a4565b506106308282610e54565b9250505090565b600260009054906101000a900473ffffffffffffffffffffffffffffffffffffffff1681565b606060008054806020026020016040519081016040528092919081815260200182805480156106e157602002820191906000526020600020905b8160009054906101000a900473ffffffffffffffffffffffffffffffffffffffff1673ffffffffffffffffffffffffffffffffffffffff1681526020019060010190808311610697575b5050505050905090565b600360009054906101000a900473ffffffffffffffffffffffffffffffffffffffff1681565b6000818154811061072157600080fd5b906000526020600020016000915054906101000a900473ffffffffffffffffffffffffffffffffffffffff1681565b600360149054906101000a900462ffffff1681565b60008060008363ffffffff1614156107e5576040517f08c379a00000000000000000000000000000000000000000000000000000000081526004018080602001828103825260028152602001807f425000000000000000000000000000000000000000000000000000000000000081525060200191505060405180910390fd5b6000600267ffffffffffffffff811180156107ff57600080fd5b5060405190808252806020026020018201604052801561082e5781602001602082028036833780820191505090505b509050838160008151811061083f57fe5b602002602001019063ffffffff16908163ffffffff168152505060008160018151811061086857fe5b602002602001019063ffffffff16908163ffffffff16815250506000808673ffffffffffffffffffffffffffffffffffffffff1663883bdbfd846040518263ffffffff1660e01b81526004018080602001828103825283818151815260200191508051906020019060200280838360005b838110156108f45780820151818401526020810190506108d9565b505050509050019250505060006040518083038186803b15801561091757600080fd5b505afa15801561092b573d6000803e3d6000fd5b505050506040513d6000823e3d601f19601f82011682018060405250604081101561095557600080fd5b810190808051604051939291908464010000000082111561097557600080fd5b8382019150602082018581111561098b57600080fd5b82518660208202830111640100000000821117156109a857600080fd5b8083526020830192505050908051906020019060200280838360005b838110156109df5780820151818401526020810190506109c4565b5050505090500160405260200180516040519392919084640100000000821115610a0857600080fd5b83820191506020820185811115610a1e57600080fd5b8251866020820283011164010000000082111715610a3b57600080fd5b8083526020830192505050908051906020019060200280838360005b83811015610a72578082015181840152602081019050610a57565b5050505090500160405250505091509150600082600081518110610a9257fe5b602002602001015183600181518110610aa757fe5b6020026020010151039050600082600081518110610ac157fe5b602002602001015183600181518110610ad657fe5b60200260200101510390508763ffffffff168260060b81610af357fe5b05965060008260060b128015610b1f575060008863ffffffff168360060b81610b1857fe5b0760060b14155b15610b2e578680600190039750505b600073ffffffffffffffffffffffffffffffffffffffff80168963ffffffff1602905060208273ffffffffffffffffffffffffffffffffffffffff1677ffffffffffffffffffffffffffffffffffffffffffffffff16901b77ffffffffffffffffffffffffffffffffffffffffffffffff168177ffffffffffffffffffffffffffffffffffffffffffffffff1681610bc257fe5b0496505050505050509250929050565b600080610bde86610ffc565b90506fffffffffffffffffffffffffffffffff80168173ffffffffffffffffffffffffffffffffffffffff1611610cef5760008173ffffffffffffffffffffffffffffffffffffffff168273ffffffffffffffffffffffffffffffffffffffff160290508373ffffffffffffffffffffffffffffffffffffffff168573ffffffffffffffffffffffffffffffffffffffff1610610cb057610cab7801000000000000000000000000000000000000000000000000876fffffffffffffffffffffffffffffffff1683611437565b610ce7565b610ce681876fffffffffffffffffffffffffffffffff167801000000000000000000000000000000000000000000000000611437565b5b925050610dcc565b6000610d318273ffffffffffffffffffffffffffffffffffffffff168373ffffffffffffffffffffffffffffffffffffffff1668010000000000000000611437565b90508373ffffffffffffffffffffffffffffffffffffffff168573ffffffffffffffffffffffffffffffffffffffff1610610d9957610d94700100000000000000000000000000000000876fffffffffffffffffffffffffffffffff1683611437565b610dc8565b610dc781876fffffffffffffffffffffffffffffffff16700100000000000000000000000000000000611437565b5b9250505b50949350505050565b6060630bc192a560e01b82604051602401610df09190611958565b604051602081830303815290604052907bffffffffffffffffffffffffffffffffffffffffffffffffffffffff19166020820180517bffffffffffffffffffffffffffffffffffffffffffffffffffffffff83818316178352505050509050919050565b60608151835114610e9a576040517f08c379a0000000000000000000000000000000000000000000000000000000008152600401610e919061191d565b60405180910390fd5b6000825167ffffffffffffffff81118015610eb457600080fd5b50604051908082528060200260200182016040528015610ee857816020015b6060815260200190600190039081610ed35790505b50905060005b8451811015610ff157600080868381518110610f0657fe5b602002602001015173ffffffffffffffffffffffffffffffffffffffff16868481518110610f3057fe5b6020026020010151604051610f459190611830565b600060405180830381855afa9150503d8060008114610f80576040519150601f19603f3d011682016040523d82523d6000602084013e610f85565b606091505b509150915081610fca576040517f08c379a0000000000000000000000000000000000000000000000000000000008152600401610fc1906118fd565b60405180910390fd5b80848481518110610fd757fe5b602002602001018190525050508080600101915050610eee565b508091505092915050565b60008060008360020b12611013578260020b61101b565b8260020b6000035b90507ffffffffffffffffffffffffffffffffffffffffffffffffffffffffffff2761860000360020b8111156110b9576040517f08c379a00000000000000000000000000000000000000000000000000000000081526004018080602001828103825260018152602001807f540000000000000000000000000000000000000000000000000000000000000081525060200191505060405180910390fd5b6000806001831614156110dd577001000000000000000000000000000000006110ef565b6ffffcb933bd6fad37aa2d162d1a5940015b70ffffffffffffffffffffffffffffffffff169050600060028316146111295760806ffff97272373d413259a46990580e213a8202901c90505b6000600483161461114e5760806ffff2e50f5f656932ef12357cf3c7fdcc8202901c90505b600060088316146111735760806fffe5caca7e10e4e61c3624eaa0941cd08202901c90505b600060108316146111985760806fffcb9843d60f6159c9db58835c9266448202901c90505b600060208316146111bd5760806fff973b41fa98c081472e6896dfb254c08202901c90505b600060408316146111e25760806fff2ea16466c96a3843ec78b326b528618202901c90505b600060808316146112075760806ffe5dee046a99a2a811c461f1969c30538202901c90505b600061010083161461122d5760806ffcbe86c7900a88aedcffc83b479aa3a48202901c90505b60006102008316146112535760806ff987a7253ac413176f2b074cf7815e548202901c90505b60006104008316146112795760806ff3392b0822b70005940c7a398e4b70f38202901c90505b600061080083161461129f5760806fe7159475a2c29b7443b29c7fa6e889d98202901c90505b60006110008316146112c55760806fd097f3bdfd2022b8845ad8f792aa58258202901c90505b60006120008316146112eb5760806fa9f746462d870fdf8a65dc1f90e061e58202901c90505b60006140008316146113115760806f70d869a156d2a1b890bb3df62baf32f78202901c90505b60006180008316146113375760806f31be135f97d08fd981231505542fcfa68202901c90505b60006201000083161461135e5760806f09aa508b5b7a84e1c677de54f3e99bc98202901c90505b6000620200008316146113845760806e5d6af8dedb81196699c329225ee6048202901c90505b6000620400008316146113a95760806d2216e584f5fa1ea926041bedfe988202901c90505b6000620800008316146113cc5760806b048a170391f7dc42444e8fa28202901c90505b60008460020b131561140557807fffffffffffffffffffffffffffffffffffffffffffffffffffffffffffffffff8161140157fe5b0490505b6000640100000000828161141557fe5b0614611422576001611425565b60005b60ff16602082901c0192505050919050565b600080600080198587098587029250828110838203039150506000811415611472576000841161146657600080fd5b8382049250505061150a565b80841161147e57600080fd5b600084868809905082811182039150808303925060008586600003169050808604955080840493506001818260000304019050808302841793506000600287600302189050808702600203810290508087026002038102905080870260020381029050808702600203810290508087026002038102905080870260020381029050808502955050505050505b9392505050565b60008135905061152081611aac565b92915050565b60008151905061153581611aac565b92915050565b60008135905061154a81611ac3565b92915050565b60006020828403121561156257600080fd5b600061157084828501611511565b91505092915050565b60006020828403121561158b57600080fd5b600061159984828501611526565b91505092915050565b6000602082840312156115b457600080fd5b60006115c28482850161153b565b91505092915050565b60006115d783836115f7565b60208301905092915050565b60006115ef83836116e8565b905092915050565b61160081611a1d565b82525050565b61160f81611a1d565b82525050565b600061162082611993565b61162a81856119ce565b935061163583611973565b8060005b8381101561166657815161164d88826115cb565b9750611658836119b4565b925050600181019050611639565b5085935050505092915050565b600061167e8261199e565b61168881856119df565b93508360208202850161169a85611983565b8060005b858110156116d657848403895281516116b785826115e3565b94506116c2836119c1565b925060208a0199505060018101905061169e565b50829750879550505050505092915050565b60006116f3826119a9565b6116fd81856119f0565b935061170d818560208601611a68565b61171681611a9b565b840191505092915050565b600061172c826119a9565b6117368185611a01565b9350611746818560208601611a68565b80840191505092915050565b600061175f601783611a0c565b91507f54686520706f6f6c20646f6573206e6f742065786973740000000000000000006000830152602082019050919050565b600061179f600b83611a0c565b91507f63616c6c206661696c65640000000000000000000000000000000000000000006000830152602082019050919050565b60006117df601c83611a0c565b91507f746172676574206c656e67746820213d2064617461206c656e677468000000006000830152602082019050919050565b61181b81611a4f565b82525050565b61182a81611a5e565b82525050565b600061183c8284611721565b915081905092915050565b600060208201905061185c6000830184611606565b92915050565b60006060820190506118776000830186611606565b6118846020830185611606565b6118916040830184611812565b949350505050565b600060208201905081810360008301526118b38184611615565b905092915050565b600060208201905081810360008301526118d58184611673565b905092915050565b600060208201905081810360008301526118f681611752565b9050919050565b6000602082019050818103600083015261191681611792565b9050919050565b60006020820190508181036000830152611936816117d2565b9050919050565b60006020820190506119526000830184611812565b92915050565b600060208201905061196d6000830184611821565b92915050565b6000819050602082019050919050565b6000819050602082019050919050565b600081519050919050565b600081519050919050565b600081519050919050565b6000602082019050919050565b6000602082019050919050565b600082825260208201905092915050565b600082825260208201905092915050565b600082825260208201905092915050565b600081905092915050565b600082825260208201905092915050565b6000611a2882611a2f565b9050919050565b600073ffffffffffffffffffffffffffffffffffffffff82169050919050565b600062ffffff82169050919050565b6000819050919050565b60005b83811015611a86578082015181840152602081019050611a6b565b83811115611a95576000848401525b50505050565b6000601f19601f8301169050919050565b611ab581611a1d565b8114611ac057600080fd5b50565b611acc81611a5e565b8114611ad757600080fd5b5056fea264697066735822122051b1d56a9c157801a01795a31a65674b1f8ef6bd904e44cab60a86fa5b47d04264736f6c63430007060033",
  "linkReferences": {},
  "deployedLinkReferences": {}
}